:100000000C9463000C948B000C948B000C948B006C
:100010000C948B000C948B000C948B000C941309A3
:100020000C948B000C948B000C948B000C948B0024
:100030000C948B000C948B000C948B000C948B0014
:100040000C94C6040C948B000C944D060C949406EE
:100050000C948B000C948B000C948B000C948B00F4
:100060000C948B000C948B000000000024002700EF
:100070002A0000000000250028002B0000000000DE
:1000800023002600290004040404040404040202DA
:100090000202020203030303030301020408102007
:1000A0004080010204081020010204081020000012
:1000B0000007000201000003040600000000000029
:1000C000000002000B0811241FBECFEFD8E0DEBFF6
:1000D000CDBF15E0A0E0B1E0E2EDF8E102C005908F
:1000E0000D92A23CB107D9F716E0A2ECB5E001C031
:1000F0001D92A739B107E1F710E0C6ECD0E004C0CB
:100100002297FE010E942C0CC43CD107C9F70E9423
:100110005B080C94670C0C940000A0E0B0E0E3E9ED
:10012000F0E00C94380CEC01A880B980CA80DB8028
:10013000A114B104C104D10441F484E2A82E89EDD4
:10014000B82E8BE5C82E87E0D82EC601B5012DE16B
:1001500033EF41E050E00E94FB0B27EA31E440E03E
:1001600050E00E94A70B7B018C01C601B5012DE177
:1001700033EF41E050E00E94FB0BCA01B9012CEEC5
:1001800034EF4FEF5FEF0E94A70B6E0D7F1D801FB6
:10019000911F97FF04C06150704080409048688371
:1001A00079838A839B839B01AC015F77B901CA0184
:1001B000CDB7DEB7EAE00C94540C0E948D00089590
:1001C00088E091E00E948D0008956093080170938B
:1001D000090180930A0190930B0108950F931F93D7
:1001E000CF93DF93C0E0D0E0FE01E258FD4F0081E5
:1001F0001181FE01E450FC4F6081718188EE93E033
:100200000E94C60B9B01442737FD4095542F8091D7
:100210002A01B8010E946F09FE01E458FA4F60817B
:10022000718188EE93E00E94C60B882777FD809548
:10023000982F0E941C0580912A010E94FC0822969A
:10024000C433D10589F668EE73E080E090E00E9447
:100250001C05DF91CF911F910F9108950F931F936C
:10026000CF93DF93C0E0D0E0FE01E05DFD4F008161
:100270001181FE01E255FC4F6081718188EE93E0AF
:100280000E94C60B9B01442737FD4095542F809157
:100290002A01B8010E946F09FE01E25DFA4F6081F8
:1002A000718188EE93E00E94C60B882777FD8095C8
:1002B000982F0E941C0580912A010E94FC0822961A
:1002C000CE34D10589F668EE73E080E090E00E94BC
:1002D0001C05DF91CF911F910F9108950F931F93EC
:1002E000CF93DF93C0E0D0E0FE01E65FFD4F0081D9
:1002F0001181FE01E857FC4F6081718188EE93E027
:100300000E94C60B9B01442737FD4095542F8091D6
:100310002A01B8010E946F09FE01E85FFA4F60816F
:10032000718188EE93E00E94C60B882777FD809547
:10033000982F0E941C0580912A010E94FC08229699
:10034000C632D10589F668EE73E080E090E00E9445
:100350001C05DF91CF911F910F9108950F931F936B
:10036000CF93DF93C0E0D0E0FE01E251FE4F008169
:100370001181FE01E459FC4F6081718188EE93E0A8
:100380000E94C60B9B01442737FD4095542F809156
:100390002A01B8010E946F09FE01E451FB4F608100
:1003A000718188EE93E00E94C60B882777FD8095C7
:1003B000982F0E941C0580912A010E94FC08229619
:1003C000CC31D10589F668EE73E080E090E00E94C0
:1003D0001C05DF91CF911F910F9108950F931F93EB
:1003E000CF93DF93C0E0D0E0FE01E854FE4F0081E0
:1003F0001181FE01EA5CFC4F6081718188EE93E01F
:100400000E94C60B9B01442737FD4095542F8091D5
:100410002A01B8010E946F09FE01EA54FB4F608176
:10042000718188EE93E00E94C60B882777FD809546
:10043000982F0E941C0580912A010E94FC08229698
:10044000C633D10589F668EE73E080E090E00E9443
:100450001C05DF91CF911F910F9108950F931F936A
:10046000CF93DF93C0E0D0E0FE01EA57FE4F00815A
:100470001181FE01EC5FFC4F6081718188EE93E099
:100480000E94C60B9B01442737FD4095542F809155
:100490002A01B8010E946F09FE01EC57FB4F6081F1
:1004A000718188EE93E00E94C60B882777FD8095C6
:1004B000982F0E941C0580912A010E94FC08229618
:1004C000C233D10589F668EE73E080E090E00E94C7
:1004D0001C05DF91CF911F910F9108950F931F93EA
:1004E000CF93DF93C0E0D0E0FE01E85AFE4F0081D9
:1004F0001181FE01EC52FD4F6081718188EE93E025
:100500000E94C60B9B01442737FD4095542F8091D4
:100510002A01B8010E946F09FE01EC5AFB4F60816D
:10052000718188EE93E00E94C60B882777FD809545
:10053000982F0E941C0580912A010E94FC08229697
:10054000C033D10589F668EE73E080E090E00E9448
:100550001C05DF91CF911F910F9108950F931F9369
:10056000CF93DF93C0E0D0E0FE01E85CFE4F008156
:100570001181FE01EE54FD4F6081718188EE93E0A0
:100580000E94C60B9B01442737FD4095542F809154
:100590002A01B8010E946F09FE01E05DFB4F6081F6
:1005A000718188EE93E00E94C60B882777FD8095C5
:1005B000982F0E941C0580912A010E94FC08229617
:1005C000CE31D10589F668EE73E080E090E00E94BC
:1005D0001C05DF91CF911F910F9108956091280123
:1005E00070912901882777FD8095982F0E94850BAF
:1005F0009B01AC018091CC059091CD05A091CE05D9
:10060000B091CF0582179307A407B50739F320935C
:10061000CC053093CD054093CE055093CF05B9015D
:10062000CA010895EF92FF920F931F930E94EE026A
:100630007B018C01611571058105910539F081E01F
:10064000E816F1040105110539F512C080910C017D
:1006500061E00E94F80580910E0161E00E94F805BA
:100660008091100161E00E94F8058091120111C093
:100670008091140161E00E94F8058091160161E00B
:100680000E94F8058091180161E00E94F8058091B0
:100690001A0161E00E94F8050E940E056093C405EE
:1006A0007093C5058093C6059093C7050E940E05FB
:1006B00020912C0130912D0140912E0150912F015C
:1006C000260F371F481F591F2093C8053093C905AF
:1006D0004093CA055093CB05DBC08091C2050E94B0
:1006E000B0059093D1058093D005209134013091CD
:1006F0003501281739070CF454C080911C010E9461
:10070000B0059093D1058093D005209134013091AC
:100710003501281739070CF444C080911E010E944E
:10072000B0059093D1058093D0052091340130918C
:10073000350128173907ACF1809120010E94B005DE
:100740009093D1058093D0052091340130913501EB
:100750002817390734F1809122010E94B005909347
:10076000D1058093D00520913401309135012817AF
:100770003907BCF0809124010E94B0059093D10507
:100780008093D00520913401309135012817390725
:1007900044F0809126010E94B0059093D10580938A
:1007A000D0052091D0053091D105809134019091F0
:1007B0003501821793070CF061C08091360190914A
:1007C0003701281739070CF059C083E696E060E03E
:1007D00071E00E94C80883E0E816F10401051105E4
:1007E000D1F184E0E816F1040105110594F481E0EB
:1007F000E816F1040105110541F182E0E816F10463
:10080000010511052CF5E114F10401051105D1F0E4
:1008100030C085E0E816F1040105110511F185E00D
:10082000E816F10401051105CCF086E0E816F104A4
:1008300001051105C9F087E0E816F104010511056D
:10084000C1F415C00E94AE0214C00E946E0211C015
:100850000E942E020EC00E94EE010BC00E94AE014B
:1008600008C00E946E0105C00E942E0102C00E94B5
:10087000EE0068EE73E080E090E050C00E940E054C
:100880006093C4057093C5058093C6059093C70512
:100890002091C8053091C9054091CA055091CB05FA
:1008A0008091C4059091C505A091C605B091C7057A
:1008B000281739074A075B070CF00FCF80910C010E
:1008C00060E00E94F80580910E0160E00E94F8054A
:1008D0008091100160E00E94F8058091120160E0B3
:1008E0000E94F8058091140160E00E94F805809153
:1008F000160160E00E94F8058091180160E00E94F6
:10090000F80580911A0160E00E94F80560913001BD
:100910007091310180913201909133010E941C0548
:100920001F910F91FF90EF90089583E696E040E8C5
:1009300055E260E070E00E94DD0680910C0161E00C
:100940000E94D20580910E0161E00E94D205809143
:10095000100161E00E94D2058091120161E00E94C5
:10096000D2058091140161E00E94D20580911601A8
:1009700061E00E94D2058091180161E00E94D205D9
:1009800080911A0161E00E94D20508951F920F9292
:100990000FB60F9211242F933F938F939F93AF9392
:1009A000BF938091D6059091D705A091D805B091BD
:1009B000D9053091DA050196A11DB11D232F2D5FB8
:1009C0002D3720F02D570196A11DB11D2093DA057A
:1009D0008093D6059093D705A093D805B093D905F9
:1009E0008091D2059091D305A091D405B091D50501
:1009F0000196A11DB11D8093D2059093D305A093BC
:100A0000D405B093D505BF91AF919F918F913F9140
:100A10002F910F900FBE0F901F9018958FB7F894DD
:100A20002091D6053091D7054091D8055091D90530
:100A30008FBFB901CA0108959B01AC017FB7F8943B
:100A40008091D2059091D305A091D405B091D505A0
:100A500066B5A89B05C06F3F19F00196A11DB11D99
:100A60007FBFBA2FA92F982F8827860F911DA11D10
:100A7000B11D62E0880F991FAA1FBB1F6A95D1F7AD
:100A8000BC012DC0FFB7F8948091D2059091D30599
:100A9000A091D405B091D505E6B5A89B05C0EF3F60
:100AA00019F00196A11DB11DFFBFBA2FA92F982FD4
:100AB00088278E0F911DA11DB11DE2E0880F991F9F
:100AC000AA1FBB1FEA95D1F7861B970B885E934040
:100AD000C8F2215030404040504068517C4F2115B1
:100AE00031054105510571F60895789484B5826009
:100AF00084BD84B5816084BD85B5826085BD85B5C2
:100B0000816085BDEEE6F0E0808181608083E1E870
:100B1000F0E01082808182608083808181608083A8
:100B2000E0E8F0E0808181608083E1EBF0E08081AB
:100B300084608083E0EBF0E0808181608083EAE77D
:100B4000F0E0808184608083808182608083808106
:100B5000816080838081806880831092C1000895C5
:100B6000982F8E3008F09E5097708091B005829536
:100B7000880F880F807C892B80937C0080917A007D
:100B8000806480937A0080917A0086FDFCCF20916A
:100B9000780040917900942F80E030E0282B392BA9
:100BA000C9010895482F50E0CA0186569F4FFC01A5
:100BB00024914A575F4FFA0184918823C1F0E82FAE
:100BC000F0E0EE0FFF1FE859FF4FA591B4916623A7
:100BD00041F49FB7F8948C91209582238C939FBF0A
:100BE00008959FB7F8948C91822B8C939FBF0895A2
:100BF000482F50E0CA0182559F4FFC012491CA0141
:100C000086569F4FFC0194914A575F4FFA013491E9
:100C1000332309F440C0222351F1233071F02430F2
:100C200028F42130A1F0223011F514C02630B1F0A3
:100C30002730C1F02430D9F404C0809180008F7730
:100C400003C0809180008F7D8093800010C084B5A8
:100C50008F7702C084B58F7D84BD09C08091B000BC
:100C60008F7703C08091B0008F7D8093B000E32F19
:100C7000F0E0EE0FFF1FEE58FF4FA591B4912FB794
:100C8000F894662321F48C919095892302C08C916D
:100C9000892B8C932FBF089508951F920F920FB642
:100CA0000F9211242F933F934F938F939F93EF9322
:100CB000FF934091C60020911B0630911C062F5FC8
:100CC0003F4F2F73307080911D0690911E0628179C
:100CD000390759F0E0911B06F0911C06E552FA4FD6
:100CE000408330931C0620931B06FF91EF919F9148
:100CF0008F914F913F912F910F900FBE0F901F90AA
:100D00001895E0916F06F0917006E05CFF4F8191BD
:100D1000919120813181821B930B8F739070892B6D
:100D200011F00E944C0608951F920F920FB60F9279
:100D300011242F933F934F935F936F937F938F93E0
:100D40009F93AF93BF93EF93FF9320915F063091F2
:100D5000600680916106909162062817390731F488
:100D60008091C1008F7D8093C10016C0E091610623
:100D7000F0916206E15EF94F4081809161069091A9
:100D80006206019660E470E00E94C60B90936206D2
:100D9000809361064093C600FF91EF91BF91AF91A0
:100DA0009F918F917F916F915F914F913F912F9183
:100DB0000F900FBE0F901F901895AF92BF92DF92C9
:100DC000EF92FF920F931F93CF93DF93EC017A0181
:100DD0008B01DD24403081EE580780E0680780E019
:100DE000780711F0DD24D39491E0A92EB12CEC8981
:100DF000FD89DD2069F0C5010E8C02C0880F991FA6
:100E00000A94E2F7808360E079E08DE390E005C02A
:100E1000108260E874E88EE190E0A80197010E94DA
:100E2000D90B21503040404050405695479537955A
:100E3000279580E12030380720F0DD2011F0DD24F7
:100E4000D6CFE889F9893083EA89FB892083EE8946
:100E5000FF89408121E030E0C9010A8C02C0880F7F
:100E6000991F0A94E2F7482B4083EE89FF8940815D
:100E7000C9010B8C02C0880F991F0A94E2F7482B16
:100E80004083EE89FF894081C9010C8C02C0880F24
:100E9000991F0A94E2F7482B4083EE89FF898081ED
:100EA0000D8C02C0220F331F0A94E2F720952823ED
:100EB0002083DF91CF911F910F91FF90EF90DF90F2
:100EC000BF90AF900895DC011C96ED91FC911D97A9
:100ED000E05CFF4F2191319180819181281B390B7A
:100EE0002F733070C9010895DC011C96ED91FC91BF
:100EF0001D97E05CFF4F20813181E054F040DF011D
:100F0000AE5BBF4F8D919C9111972817390719F44B
:100F10002FEF3FEF07C08D919C91E80FF91F808163
:100F2000282F30E0C9010895DC011C96ED91FC9159
:100F30001D97E05CFF4F20813181E054F040DF01DC
:100F4000AE5BBF4F8D919C9111972817390719F40B
:100F50002FEF3FEF10C08D919C911197E80FF91F73
:100F600020818D919C91119701968F7390701196AD
:100F70009C938E9330E0C9010895FC018685978586
:100F8000DC01A05CBF4FFC01EE5BFF4F2D913C915B
:100F900011978081918128173907C1F70895CF9360
:100FA000DF93EC01462FEE85FF85E05CFF4F8081EB
:100FB0009181E054F040019660E470E00E94C60B1D
:100FC0009C01DF01AE5BBF4F8D919C91119728175B
:100FD0003907D1F3E05CFF4F80819181E054F0400C
:100FE000E80FF91F4083EE85FF85E05CFF4F3183FA
:100FF0002083EE89FF89208181E090E00D8C02C082
:10100000880F991F0A94E2F7282B208381E090E053
:10101000DF91CF910895109266061092650688EED2
:1010200093E0A0E0B0E08093670690936806A093F9
:101030006906B0936A0686EB95E090936406809308
:1010400063068BED95E09093700680936F068FE1B9
:1010500096E0909372068093710685EC90E09093F1
:1010600074068093730684EC90E0909376068093E8
:10107000750680EC90E0909378068093770681EC7B
:1010800090E090937A068093790686EC90E09093B6
:101090007C0680937B0684E080937D0683E08093CA
:1010A0007E0687E080937F0685E08093800681E05E
:1010B000809381060895CF93DF930E9475050E9467
:1010C0009504C1E8D6E00E9412032097E1F30E9444
:1010D0008106F9CFCF92DF92EF92FF920F931F9389
:1010E000CF93DF937C016B018A01C0E0D0E00FC099
:1010F000D6016D916D01D701ED91FC910190F081C8
:10110000E02DC7010995C80FD91F015010400115E6
:10111000110571F7CE01DF91CF911F910F91FF90D3
:10112000EF90DF90CF900895EF92FF920F931F936F
:101130008C01DC01ED91FC910190F081E02D6DE0DE
:1011400009957C01D801ED91FC910190F081E02D91
:10115000C8016AE009959C012E0D3F1DC9011F9130
:101160000F91FF90EF900895CF93DF93DB010D90E7
:101170000020E9F71197A61BB70BEC01E881F98174
:101180000280F381E02DAD010995DF91CF910895A3
:10119000EF92FF920F931F937C010E94B4088C0181
:1011A000C7010E949408080F191FC8011F910F91D1
:1011B000FF90EF900895813041F0813018F0823037
:1011C000D1F409C010926E00089580916F008D7F58
:1011D00080936F000895809170008D7F80937000E0
:1011E00081E08093B0008091B100887F846080931B
:1011F000B1001092B30008951F93182F8091B1058C
:10120000811711F09FEF06C0E2ECF0E094918FEFB0
:101210008093B105892F0E94DB08812F60E00E9436
:10122000F8051F9108951F920F920FB60F92112487
:101230002F933F934F935F936F937F938F939F93DE
:10124000AF93BF93EF93FF93809190069091910697
:10125000A0919206B09193060097A105B10551F1B6
:10126000E0919406F09195068081909196068927E9
:1012700080838091900690919106A0919206B09102
:101280009306181619061A061B06C4F480919006D8
:1012900090919106A0919206B09193060197A109B1
:1012A000B1098093900690939106A0939206B09313
:1012B000930604C08091B1050E94FC08FF91EF9154
:1012C000BF91AF919F918F917F916F915F914F915E
:1012D0003F912F910F900FBE0F901F9018952F9256
:1012E0003F925F926F927F928F929F92AF92BF9246
:1012F000CF92DF92EF92FF920F931F93DF93CF93E2
:1013000000D000D0CDB7DEB7A82F1B0129833A83C8
:101310004B835C838091B1058A1721F4E2ECF0E005
:10132000549082C08F3F09F0DAC1A093B105E2EC7E
:10133000F0E054902FEF521609F4D1C181E0581615
:1013400039F192E0591609F449C0552009F06CC0F2
:1013500014BC15BC84B5826084BD85B5816085BD33
:101360002A2F30E0F901EA57FF4FE491F0E0EE0F49
:10137000FF1FEE58FF4F85919491909387068093BD
:10138000860626563F4FF9018491809388064EC009
:10139000109280001092810080918100886080937B
:1013A0008100809181008160809381002A2F30E04C
:1013B000F901EA57FF4FE491F0E0EE0FFF1FEE58FE
:1013C000FF4F8591949190938E0680938D062656BB
:1013D0003F4FF901849180938F0628C01092B0008E
:1013E0001092B1008091B00082608093B000809133
:1013F000B10081608093B1002A2F30E0F901EA57F3
:10140000FF4FE491F0E0EE0FFF1FEE58FF4F859184
:101410009491909395068093940626563F4FF90138
:1014200084918093960602C057FC59C18A2F61E0CF
:101430000E94D205552021F0F2E05F1609F0BEC0EF
:1014400031018824992460E072E18AE790E0A401E8
:1014500093010E94FB0B59016A01860175010894F2
:10146000E108F108010911092FEFE216F104010565
:10147000110509F008F499C060E472E48FE090E08F
:10148000A40193010E94FB0B79018A010894E108F1
:10149000F1080109110982E05816C1F49FEFE9161D
:1014A000F1040105110509F008F484C060E970ED4C
:1014B00083E090E0A40193010E94FB0B79018A0173
:1014C0000894E108F1080109110983E0AFEFEA1679
:1014D000F1040105110509F008F468C068E478EE2C
:1014E00081E090E0A40193010E94FB0B79018A0145
:1014F0000894E108F10801091109552011F483E06D
:101500001DC0B2E05B1611F084E018C0EFEFEE16DC
:10151000F1040105110509F008F4DFC064E274EF7D
:1015200080E090E0A40193010E94FB0B79018A0105
:101530000894E108F1080109110985E0FFEFEF16B1
:10154000F1040105110591F188F162E17AE780E08B
:1015500090E0A40193010E94FB0B79018A01089499
:10156000E108F10801091109552011F086E001C0D8
:1015700084E02FEFE216F10401051105B9F0B0F097
:10158000C601B50120E034E040E050E00E94FB0BD2
:1015900079018A010894E108F1080109110955202F
:1015A00011F087E008C085E003C081E0552019F400
:1015B00085BD3AC082E08093B10036C05101CC2491
:1015C000DD2460E072E18AE790E0A60195010E94C7
:1015D000FB0B79018A010894E108F108010911095E
:1015E00080E0E81680E0F80681E0080780E0180750
:1015F00010F491E010C068E478EE81E090E0A6017C
:1016000095010E94FB0B79018A010894E108F10819
:101610000109110993E0A1E05A1631F4809181008B
:10162000887F982B9093810089819A81AB81BC81BE
:101630000097A105B10529F48FEF9FEFAFEFBFEF42
:1016400013C0220C331CB10180E090E029813A8163
:101650004B815C810E94A70B28EE33E040E050E014
:101660000E94D90BC901DA01E1E05E16A1F0F2E0B7
:101670005F1619F1552099F5E7BC80938206909387
:101680008306A0938406B093850680916E008260E5
:1016900080936E0024C0F0928900E09288008093CD
:1016A000890690938A06A0938B06B0938C0680914E
:1016B0006F00826080936F0012C0E092B30080934D
:1016C000900690939106A0939206B0939306809112
:1016D000700082608093700002C084E06CCF0F9035
:1016E0000F900F900F90CF91DF911F910F91FF906E
:1016F000EF90DF90CF90BF90AF909F908F907F90B2
:101700006F905F903F902F900895EF92FF920F930C
:101710001F937B018C01611571058105910529F4E9
:1017200020E030E040E050E00BC00E94E000A80163
:1017300097010E94FB0BAC01CB01DA019C01AD01CA
:10174000B901CA011F910F91FF90EF900895629F18
:10175000D001739FF001829FE00DF11D649FE00DA9
:10176000F11D929FF00D839FF00D749FF00D659F0A
:10177000F00D9927729FB00DE11DF91F639FB00D09
:10178000E11DF91FBD01CF011124089597FB092E1A
:1017900007260AD077FD04D049D006D000201AF4DD
:1017A000709561957F4F0895F6F7909581959F4FBD
:1017B0000895A1E21A2EAA1BBB1BFD010DC0AA1F92
:1017C000BB1FEE1FFF1FA217B307E407F50720F0AA
:1017D000A21BB30BE40BF50B661F771F881F991F25
:1017E0001A9469F760957095809590959B01AC016E
:1017F000BD01CF01089597FB092E05260ED057FD98
:1018000004D0D7DF0AD0001C38F4509540953095AD
:1018100021953F4F4F4F5F4F0895F6F79095809574
:10182000709561957F4F8F4F9F4F0895AA1BBB1BEB
:1018300051E107C0AA1FBB1FA617B70710F0A61BD0
:10184000B70B881F991F5A95A9F780959095BC01F1
:10185000CD010895EE0FFF1F0590F491E02D09943E
:101860002F923F924F925F926F927F928F929F92B0
:10187000AF92BF92CF92DF92EF92FF920F931F939E
:10188000CF93DF93CDB7DEB7CA1BDB0B0FB6F8944F
:10189000DEBF0FBECDBF09942A88398848885F848F
:1018A0006E847D848C849B84AA84B984C884DF8000
:1018B000EE80FD800C811B81AA81B981CE0FD11DE4
:1018C0000FB6F894DEBF0FBECDBFED010895F894BA
:0218D000FFCF48
:1018D2007072657373656400010000000300040008
:1018E200050006000700080009000A0001000200C6
:1018F2000300040005000600020002008813000035
:10190200D007000064002003060106018801880157
:10191200B801B801880100005D015D015D014A0165
:101922004A012601260106014A014A014A0106012D
:101932004A018801C4000601C400A500B801EE01F5
:10194200D201B801C4004A0170035D0188014A0155
:1019520006012601F7004A012601060126014A0175
:101962004A014A012601260126014A01880188010D
:101972004A012601060126014A014A014A012601BD
:1019820026014A012601060106014A018801880151
:1019920088018801B80188014A0106010601260171
:1019A200260126014A0106014A01880188018801AF
:1019B2008801B80188014A01060126010601880151
:1019C200880188010B024A014A014A018801060185
:1019D200060106014A018801260106014A01880121
:1019E2004A015D015D0126014A014A010601060123
:1019F2004A0188014A015D015D01260126010601B5
:101A020006010601260126018801880188015D017F
:101A12004A012601060106010601F700DC00C400A6
:101A2200060106010601F700DC00C40006010601FA
:101A3200260126018801880188015D014A012601EB
:101A4200EE01060126015D01B8015D0126015D017D
:101A52004A014A0126015D01B801B80188018801E5
:101A62005D015D01B801B801B80188015D0188011D
:101A7200880188015D015D015D014A0126014A017B
:101A82004A010400040004000400040004000400ED
:101A92001000080008000800080008000400040004
:101AA2000400040004000600040006000300020013
:101AB2000200030003000300040004000600040007
:101AC20004000600040006000500040004000400EF
:101AD20006000400030003000300030003000300E8
:101AE20002000300030002000300030002000300DF
:101AF20003000300030003000300020003000300CD
:101B020003000300020002000200020004000400BD
:101B120002000200020002000200020004000200B1
:101B2200020004000200020002000400040002009D
:101B32000200020002000100010001000200020096
:101B42000200020002000200020002000200020083
:101B5200020002000100010004000400040004006D
:101B62000800080004000800080004000400040043
:101B72000400040008000800080008000200020037
:101B8200020002000200040004000400040002003B
:101B92000400040004000400040002000200040027
:101BA200040004000400020002000200020002001D
:101BB200020004000400040004000200040001000A
:101BC20001000400040004000400040002000200FA
:101BD20004000100040002000400020004000200EC
:101BE20004000200040004000400040002000400D7
:101BF20004000200040004000400040002000200C9
:101C020004000400040004000400040004000400B2
:101C120002000400040004000400040004000400A4
:101C22000400040004000400040004000400040092
:101C32000400040004000400040004000400040082
:101C42000400040004000400040004000400040072
:101C5200040004000200020002000200020002006E
:101C62000100020002000100020002000100020065
:101C72000200020002000200020001000200020053
:101C8200020002000100020002000200040004003F
:101C92000200020002000200020002000100020033
:101CA200020001000200020002000400040002001F
:101CB2000200020002000100010001000300030013
:101CC20003000300030003000300030003000300FA
:101CD20003000300020002000200020002000200F0
:101CE20004000400020004000400020002000200DA
:101CF20002000200040004000400040004000200C8
:101D020002000200020004000400040004000200B9
:101D120002000400050005000500020002000400A4
:101D22000500050005000200010002000200020099
:101D3200020004000400040004000200010001008B
:101D4200010004000400040004000100020003007A
:101D5200040001000300020003000200030002006D
:101D62000300020004000400040004000200020058
:101D7200030002000300040004000300020002004A
:101D820001FF00000000CF076A0863079407740789
:021D9200BD078B
:00000001FF
