:100000000C9404010C9431010C9431010C943101D5
:100010000C9431010C9431010C9431010C94310198
:100020000C9431010C9431010C9431010C94310188
:100030000C9431010C94D10D0C9431010C943101CC
:100040000C9431010C9431010C9431010C94310168
:100050000C9431010C9431010C9431010C9448063C
:100060000C9431010C945B080C9487090C943101B9
:100070000C9431010C9431010C9431010C94310138
:100080000C9431010C9431010C9431010C94310128
:100090000C9494080C94D4090C9431010C94310103
:1000A0000C9431010C9431010C9431010C94310108
:1000B0000C9431010C9431010C9431010C943101F8
:1000C0000C9431010C9431010C9431010C94CD0845
:1000D0000C94210A0C9431010C9406090C946E0ABC
:1000E0000C94310100002100240027002A002D007B
:1000F0003000330001010000040107010A01000083
:100100002200250028002B002E00310034000201BF
:100110000000050108010B0100002000230026005B
:1001200029002C002F00320000010000030106010D
:10013000090105050505070508080808020202026D
:100140000A0A080804040404010101010101010173
:100150000303030303030303040707070C0C0C0C3E
:100160000C0C0C0C02020202060606060606060627
:100170000B0B0B0B0B0B0B0B0102102020080810B4
:100180002040102040800201020108040201010207
:1001900004081020408080402010080402018004E0
:1001A000020180402010080402010804020101023B
:1001B0000408102040800102040810204080000044
:1001C000090A02080B0C0D070603040100000000D9
:1001D000000000000000000000000000000000001F
:1001E0000000000000000000000011100F000000DF
:1001F00000000000000000000000000000000000FF
:10020000000000000200E90B11241FBECFEFD1E275
:10021000DEBFCDBF00E00CBF16E0A0E0B2E0EEE133
:10022000F4E200E00BBF02C007900D92A43CB107BE
:10023000D9F71BBE19E0A4ECB6E001C01D92A53AA7
:10024000B107E1F712E0C8E0D2E004C02297FE0156
:100250000E94D211C630D107C9F70E94070D0C9435
:100260000D120C940000A0E0B0E0E9E3F1E00C9482
:10027000DE11EC01A880B980CA80DB80A114B10432
:10028000C104D10441F484E2A82E89EDB82E8BE597
:10029000C82E87E0D82EC601B5012DE133EF41E02D
:1002A00050E00E94A11127EA31E440E050E00E94B2
:1002B0004D117B018C01C601B5012DE133EF41E009
:1002C00050E00E94A111CA01B9012CEE34EF4FEFAA
:1002D0005FEF0E944D116E0D7F1D801F911F97FFD4
:1002E00004C06150704080409048688379838A835D
:1002F0009B839B01AC015F77B901CA01CDB7DEB723
:10030000EAE00C94FA110E943301089588E092E02B
:100310000E9433010895609308027093090280934C
:100320000A0290930B0208952091D4063091D506CD
:100330002130310589F0223031051CF4232B49F09E
:1003400006C02230310559F02330310559F020E044
:100350000EC020E0019708C020E0039705C020E010
:10036000059702C020E00797029708F421E0822F4A
:1003700008950F931F93CF93DF93C0E0D0E0FE0169
:10038000E058FC4F00811181FE01E250FB4F60817B
:10039000718188EE93E00E946C119B01442737FD28
:1003A0004095542F80912C02B8010E94310EFE011D
:1003B000E258F94F6081718188EE93E00E946C11E0
:1003C000882777FD8095982F0E949E0680912C02A9
:1003D0000E94BA0D2296C433D10589F668EE73E007
:1003E00080E090E00E949E06DF91CF911F910F91D7
:1003F00008950F931F93CF93DF93C0E0D0E0FE01E9
:10040000EE5CFC4F00811181FE01E055FB4F6081E5
:10041000718188EE93E00E946C119B01442737FDA7
:100420004095542F80912C02B8010E94310EFE019C
:10043000E05DF94F6081718188EE93E00E946C115C
:10044000882777FD8095982F0E949E0680912C0228
:100450000E94BA0D2296CE34D10589F668EE73E07B
:1004600080E090E00E949E06DF91CF911F910F9156
:1004700008950F931F93CF93DF93C0E0D0E0FE0168
:10048000E45FFC4F00811181FE01E657FB4F608164
:10049000718188EE93E00E946C119B01442737FD27
:1004A0004095542F80912C02B8010E94310EFE011C
:1004B000E65FF94F6081718188EE93E00E946C11D4
:1004C000882777FD8095982F0E949E0680912C02A8
:1004D0000E94BA0D2296C632D10589F668EE73E005
:1004E00080E090E00E949E06DF91CF911F910F91D6
:1004F00008950F931F93CF93DF93C0E0D0E0FE01E8
:10050000E051FD4F00811181FE01E259FB4F6081F6
:10051000718188EE93E00E946C119B01442737FDA6
:100520004095542F80912C02B8010E94310EFE019B
:10053000E251FA4F6081718188EE93E00E946C1164
:10054000882777FD8095982F0E949E0680912C0227
:100550000E94BA0D2296CC31D10589F668EE73E07F
:1005600080E090E00E949E06DF91CF911F910F9155
:1005700008950F931F93CF93DF93C0E0D0E0FE0167
:10058000E654FD4F00811181FE01E85CFB4F608164
:10059000718188EE93E00E946C119B01442737FD26
:1005A0004095542F80912C02B8010E94310EFE011B
:1005B000E854FA4F6081718188EE93E00E946C11DB
:1005C000882777FD8095982F0E949E0680912C02A7
:1005D0000E94BA0D2296C633D10589F668EE73E003
:1005E00080E090E00E949E06DF91CF911F910F91D5
:1005F00008950F931F93CF93DF93C0E0D0E0FE01E7
:10060000E857FD4F00811181FE01EA5FFB4F6081D9
:10061000718188EE93E00E946C119B01442737FDA5
:100620004095542F80912C02B8010E94310EFE019A
:10063000EA57FA4F6081718188EE93E00E946C1155
:10064000882777FD8095982F0E949E0680912C0226
:100650000E94BA0D2296C233D10589F668EE73E086
:1006600080E090E00E949E06DF91CF911F910F9154
:1006700008950F931F93CF93DF93C0E0D0E0FE0166
:10068000E65AFD4F00811181FE01EA52FC4F608164
:10069000718188EE93E00E946C119B01442737FD25
:1006A0004095542F80912C02B8010E94310EFE011A
:1006B000EA5AFA4F6081718188EE93E00E946C11D2
:1006C000882777FD8095982F0E949E0680912C02A6
:1006D0000E94BA0D2296C033D10589F668EE73E008
:1006E00080E090E00E949E06DF91CF911F910F91D4
:1006F00008950F931F93CF93DF93C0E0D0E0FE01E6
:10070000E65CFD4F00811181FE01EC54FC4F6081DD
:10071000718188EE93E00E946C119B01442737FDA4
:100720004095542F80912C02B8010E94310EFE0199
:10073000EE5CFA4F6081718188EE93E00E946C114B
:10074000882777FD8095982F0E949E0680912C0225
:100750000E94BA0D2296CE31D10589F668EE73E07B
:1007600080E090E00E949E06DF91CF911F910F9153
:100770000895EF92FF920F931F937C010027F7FCDF
:100780000095102FC801B7010E942B119B01AC01ED
:100790008091CE069091CF06A091D006B091D1065F
:1007A00082179307A407B50769F32093CE06309309
:1007B000CF064093D0065093D106B901CA011F91CC
:1007C0000F91FF90EF900895CF93DF9380912A02CD
:1007D00090912B020E94B9037093D5066093D406C2
:1007E000613071058105910551F162307105810516
:1007F000910534F4611571058105910569F08BC08F
:100800006230710581059105B9F16330710581058B
:10081000910509F080C057C080910C0261E00E94F0
:10082000270880910E0261E00E9427088091100243
:1008300060E00E9427088091120260E012C080915F
:100840000C0260E00E94270880910E0260E00E9486
:1008500027088091100261E00E942708809112020F
:1008600061E00E9427088091140260E00E9427083E
:100870008091160260E01CC080910C0260E00E9432
:10088000270880910E0260E00E94270880911002E4
:1008900060E00E9427088091120260E00E94270811
:1008A0008091140261E00E9427088091160261E0A5
:1008B0000E9427088091180260E00E94270880911A
:1008C0001A0260E026C080910C0260E00E942708B6
:1008D00080910E0260E00E9427088091100260E083
:1008E0000E9427088091120260E00E9427088091F0
:1008F000140260E00E9427088091160260E00E94C6
:1009000027088091180261E00E94270880911A024E
:1009100061E00E9427080E9490066093C6067093CB
:10092000C7068093C8069093C9060E94900620913E
:100930002E0230912F024091300250913102260F49
:10094000371F481F591F2093CA063093CB06409388
:10095000CC065093CD0648C18091C4060E94590729
:100960009C019093D3068093D20680913602909199
:1009700037028217930754F480913802909139021C
:10098000281739071CF4C1E0D0E0B5C080911C02E3
:100990000E9459079C019093D3068093D2068091C0
:1009A0003602909137028217930754F480913802EF
:1009B00090913902281739071CF4C2E0D0E09BC09F
:1009C00080911E020E9459079C019093D306809348
:1009D000D20680913602909137028217930754F421
:1009E0008091380290913902281739071CF4C3E02E
:1009F000D0E081C0809120020E9459079C01909311
:100A0000D3068093D20680913602909137028217E6
:100A1000930754F4809138029091390228173907CE
:100A20001CF4C4E0D0E067C0809122020E94590704
:100A30009C019093D3068093D206809136029091C8
:100A400037028217930754F480913802909139024B
:100A5000281739071CF4C5E0D0E04DC0809124026E
:100A60000E9459079C019093D3068093D2068091EF
:100A70003602909137028217930754F4809138021E
:100A800090913902281739071CF4C6E0D0E033C032
:100A9000809126020E9459079C019093D30680936F
:100AA000D20680913602909137028217930754F450
:100AB0008091380290913902281739071CF4C7E059
:100AC000D0E019C0809128020E9459079C019093A0
:100AD000D3068093D2068091360290913702821716
:100AE00093074CF480913802909139022817390706
:100AF00014F4C8E0D0E02091D2063091D306809162
:100B0000360290913702821793070CF06DC08091E6
:100B1000380290913902281739070CF065C0CE01D0
:100B20000E949401882309F455C08FEF98E060E09B
:100B300072E00E94740D88E090E00E94B903633077
:100B400071058105910599F1643071058105910563
:100B500084F4613071058105910519F162307105E8
:100B6000810591050CF56115710581059105B1F0BF
:100B70002CC06530710581059105F9F0653071056E
:100B800081059105BCF06630710581059105C1F0C4
:100B90006730710581059105C1F415C00E94790384
:100BA00014C00E94390311C00E94F9020EC00E94B5
:100BB000B9020BC00E94790208C00E94390205C028
:100BC0000E94F90102C00E94B90168EE73E080E062
:100BD00090E028C00E9490066093C6067093C706F6
:100BE0008093C8069093C9062091CA063091CB061F
:100BF0004091CC065091CD068091C6069091C706D3
:100C0000A091C806B091C906281739074A075B07A3
:100C10000CF0A2CE609132027091330280913402C6
:100C2000909135020E949E06DF91CF9108958FEF3B
:100C300098E040E855E260E070E00E94BB0A8091D5
:100C40000C0261E00E948D0780910E0261E00E941B
:100C50008D078091100261E00E948D078091120241
:100C600061E00E948D078091140261E00E948D076F
:100C70008091160261E00E948D078091180261E068
:100C80000E948D0780911A0261E00E948D070895ED
:100C90001F920F920FB60F9211242F933F938F93B1
:100CA0009F93AF93BF938091DA069091DB06A0915A
:100CB000DC06B091DD063091DE060196A11DB11D66
:100CC000232F2D5F2D3720F02D570196A11DB11D2B
:100CD0002093DE068093DA069093DB06A093DC0671
:100CE000B093DD068091D6069091D706A091D806E4
:100CF000B091D9060196A11DB11D8093D60690939F
:100D0000D706A093D806B093D906BF91AF919F9113
:100D10008F913F912F910F900FBE0F901F901895BC
:100D20008FB7F8942091DA063091DB064091DC060B
:100D30005091DD068FBFB901CA0108959B01AC0136
:100D40007FB7F8948091D6069091D706A091D806E7
:100D5000B091D90666B5A89B05C06F3F19F0019602
:100D6000A11DB11D7FBFBA2FA92F982F8827860FED
:100D7000911DA11DB11D62E0880F991FAA1FBB1F05
:100D80006A95D1F7BC012DC0FFB7F8948091D606C3
:100D90009091D706A091D806B091D906E6B5A89B48
:100DA00005C0EF3F19F00196A11DB11DFFBFBA2F7D
:100DB000A92F982F88278E0F911DA11DB11DE2E04C
:100DC000880F991FAA1FBB1FEA95D1F7861B970BA7
:100DD000885E9340C8F221503040404050406851F6
:100DE0007C4F211531054105510571F60895789420
:100DF00084B5826084BD84B5816084BD85B5826020
:100E000085BD85B5816085BDEEE6F0E080818160BD
:100E10008083E1E8F0E010828081826080838081BD
:100E200081608083E0E8F0E0808181608083E1EB95
:100E3000F0E0808184608083E0EBF0E0808181607D
:100E40008083E1E9F0E0808182608083808181603D
:100E50008083E0E9F0E0808181608083E1EAF0E076
:100E6000808182608083808181608083E0EAF0E01D
:100E7000808181608083E1E2F1E080818260808313
:100E8000808181608083E0E2F1E080818160808305
:100E9000EAE7F0E0808184608083808182608083E3
:100EA0008081816080838081806880831092C1000E
:100EB0000895382F863308F0365320917B00832F16
:100EC00086958695869590E08170907043E0880FB6
:100ED000991F4A95E1F7277F282B20937B003770D5
:100EE0008091B2068295880F880F807C832B809337
:100EF0007C0080917A00806480937A0080917A00EF
:100F000086FDFCCF2091780040917900942F80E0FD
:100F100030E0282B392BC9010895482F50E0CA0131
:100F200088589E4FFC0124914E5C5E4FFA018491DB
:100F30008823C1F0E82FF0E0EE0FFF1FEC51FF4FC8
:100F4000A591B491662341F49FB7F8948C912095B4
:100F500082238C939FBF08959FB7F8948C91822B26
:100F60008C939FBF0895893009F449C08A30A0F45A
:100F7000843051F1853040F4823079F1833000F5CE
:100F8000813009F063C026C0873079F1883098F548
:100F9000863009F05BC025C08D3009F442C08E3028
:100FA00028F48B30B1F18C30C0F52DC0803109F4BC
:100FB00042C0813109F445C08F3009F047C037C0C5
:100FC000809180008F7703C0809180008F7D809317
:100FD0008000089584B58F7702C084B58F7D84BD6D
:100FE00008958091B0008F7703C08091B0008F7D0D
:100FF0008093B0000895809190008F7707C0809112
:1010000090008F7D03C080919000877F8093900037
:1010100008958091A0008F7707C08091A0008F7DF8
:1010200003C08091A000877F8093A00008958091E5
:1010300020018F7703C0809120018F7D8093200154
:10104000089580912001877F809320010895FF9269
:101050000F931F93F62E482F50E0CA0182549E4FE3
:10106000FC012491CA0188589E4FFC0114914E5CEA
:101070005E4FFA0104910023C9F0222319F0822F58
:101080000E94B307E02FF0E0EE0FFF1FE250FF4F8A
:10109000A591B4919FB7F894FF2021F48C911095FD
:1010A000812302C08C91812B8C939FBF1F910F9144
:1010B000FF90089508951F920F920FB60F920BB6EE
:1010C0000F9211242F933F934F938F939F93EF93FE
:1010D000FF934091C60020911F07309120072F5F9A
:1010E0003F4F2F733070809121079091220728176E
:1010F000390759F0E0911F07F0912007E152F94FAD
:1011000040833093200720931F07FF91EF919F9119
:101110008F914F913F912F910F900BBE0F900FBE6B
:101120000F901F90189508951F920F920FB60F926F
:101130000BB60F9211242F933F934F938F939F934E
:10114000EF93FF934091CE002091A7073091A8071D
:101150002F5F3F4F2F7330708091A9079091AA079E
:101160002817390759F0E091A707F091A807E95926
:10117000F84F40833093A8072093A707FF91EF9182
:101180009F918F914F913F912F910F900BBE0F9098
:101190000FBE0F901F90189508951F920F920FB6D3
:1011A0000F920BB60F9211242F933F934F938F936F
:1011B0009F93EF93FF934091D60020912F08309199
:1011C00030082F5F3F4F2F7330708091310890911E
:1011D00032082817390759F0E0912F08F0913008AC
:1011E000E151F84F40833093300820932F08FF914E
:1011F000EF919F918F914F913F912F910F900BBE47
:101200000F900FBE0F901F90189508951F920F9288
:101210000FB60F920BB60F9211242F933F934F935B
:101220008F939F93EF93FF93409136012091B708DE
:101230003091B8082F5F3F4F2F7330708091B908FD
:101240009091BA082817390759F0E091B708F09142
:10125000B808E958F74F40833093B8082093B7088F
:10126000FF91EF919F918F914F913F912F910F900F
:101270000BBE0F900FBE0F901F901895E0910B09B9
:10128000F0910C09E05CFF4F8191919120813181B7
:10129000821B930B8F739070892B11F00E945A0858
:1012A000E0912A09F0912B09E05CFF4F8191919127
:1012B00020813181821B930B8F739070892B11F0E9
:1012C0000E949308E0914909F0914A09E05CFF4FC0
:1012D0008191919120813181821B930B8F7390704A
:1012E000892B11F00E94CC08E0916809F0916909FE
:1012F000E05CFF4F8191919120813181821B930BA2
:101300008F739070892B11F00E94050908951F9228
:101310000F920FB60F920BB60F9211242F933F939B
:101320004F935F936F937F938F939F93AF93BF93ED
:10133000EF93FF93209163073091640780916507D5
:10134000909166072817390731F48091C1008F7D8D
:101350008093C10016C0E0916507F0916607ED5DCE
:10136000F84F40818091650790916607019660E48F
:1013700070E00E946C11909366078093650740931C
:10138000C600FF91EF91BF91AF919F918F917F9197
:101390006F915F914F913F912F910F900BBE0F90E6
:1013A0000FBE0F901F9018951F920F920FB60F92BD
:1013B0000BB60F9211242F933F934F935F936F932C
:1013C0007F938F939F93AF93BF93EF93FF9320915E
:1013D000EB073091EC078091ED079091EE0728170D
:1013E000390731F48091C9008F7D8093C90016C000
:1013F000E091ED07F091EE07E555F84F40818091BF
:10140000ED079091EE07019660E470E00E946C1188
:101410009093EE078093ED074093CE00FF91EF91FC
:10142000BF91AF919F918F917F916F915F914F91FC
:101430003F912F910F900BBE0F900FBE0F901F90FA
:1014400018951F920F920FB60F920BB60F921124A0
:101450002F933F934F935F936F937F938F939F93BC
:10146000AF93BF93EF93FF9320917308309174086B
:1014700080917508909176082817390731F480918A
:10148000D1008F7D8093D10016C0E0917508F09156
:101490007608ED5CF74F4081809175089091760851
:1014A000019660E470E00E946C119093760880933E
:1014B00075084093D600FF91EF91BF91AF919F9136
:1014C0008F917F916F915F914F913F912F910F90ED
:1014D0000BBE0F900FBE0F901F9018951F920F928A
:1014E0000FB60F920BB60F9211242F933F934F9389
:1014F0005F936F937F938F939F93AF93BF93EF937C
:10150000FF932091FB083091FC088091FD08909199
:10151000FE082817390731F4809131018F7D8093BF
:10152000310116C0E091FD08F091FE08E554F74F37
:1015300040818091FD089091FE08019660E470E082
:101540000E946C119093FE088093FD084093360131
:10155000FF91EF91BF91AF919F918F917F916F918B
:101560005F914F913F912F910F900BBE0F900FBE47
:101570000F901F901895AF92BF92DF92EF92FF925B
:101580000F931F93CF93DF93EC017A018B01DD243E
:10159000403081EE580780E0680780E0780711F05E
:1015A000DD24D39491E0A92EB12CEC89FD89DD20B6
:1015B00069F0C5010E8C02C0880F991F0A94E2F7EA
:1015C000808360E079E08DE390E005C0108260E800
:1015D00074E88EE190E0A80197010E947F112150EC
:1015E000304040405040569547953795279580E1CB
:1015F0002030380720F0DD2011F0DD24D6CFE88937
:10160000F9893083EA89FB892083EE89FF8940814B
:1016100021E030E0C9010A8C02C0880F991F0A94AA
:10162000E2F7482B4083EE89FF894081C9010B8C8A
:1016300002C0880F991F0A94E2F7482B4083EE8975
:10164000FF894081C9010C8C02C0880F991F0A9440
:10165000E2F7482B4083EE89FF8980810D8C02C020
:10166000220F331F0A94E2F7209528232083DF916D
:10167000CF911F910F91FF90EF90DF90BF90AF90AF
:101680000895DC011C96ED91FC911D97E05CFF4FE5
:101690002191319180819181281B390B2F733070FA
:1016A000C9010895DC011C96ED91FC911D97E05C49
:1016B000FF4F20813181E054F040DF01AE5BBF4F2E
:1016C0008D919C9111972817390719F42FEF3FEF4F
:1016D00007C08D919C91E80FF91F8081282F30E081
:1016E000C9010895DC011C96ED91FC911D97E05C09
:1016F000FF4F20813181E054F040DF01AE5BBF4FEE
:101700008D919C9111972817390719F42FEF3FEF0E
:1017100010C08D919C911197E80FF91F20818D9138
:101720009C91119701968F73907011969C938E9354
:1017300030E0C9010895FC0186859785DC01A05C35
:10174000BF4FFC01EE5BFF4F2D913C9111978081C3
:10175000918128173907C1F70895CF93DF93EC01E2
:10176000462FEE85FF85E05CFF4F80819181E0543C
:10177000F040019660E470E00E946C119C01DF0172
:10178000AE5BBF4F8D919C91119728173907D1F30C
:10179000E05CFF4F80819181E054F040E80FF91F39
:1017A0004083EE85FF85E05CFF4F31832083EE8927
:1017B000FF89208181E090E00D8C02C0880F991F85
:1017C0000A94E2F7282B208381E090E0DF91CF910B
:1017D00008951F93109202091092010928EE33E038
:1017E00040E050E020930309309304094093050939
:1017F0005093060968EB76E0709300096093FF0848
:101800008FED96E090930C0980930B0983E297E0AB
:1018100090930E0980930D0985EC90E09093100948
:1018200080930F0984EC90E0909312098093110942
:1018300080EC90E0909314098093130981EC90E080
:10184000909316098093150986EC90E090931809FF
:101850008093170914E010931909B3E0B0931A09A3
:10186000A7E0A0931B09F5E0F0931C09E1E0E093E9
:101870001D0910922109109220092093220930930A
:101880002309409324095093250970931F096093FD
:101890001E0987E697E090932B0980932A098BEA2B
:1018A00097E090932D0980932C098DEC90E0909314
:1018B0002F0980932E098CEC90E09093310980934E
:1018C000300988EC90E0909333098093320989ECD9
:1018D00090E090933509809334098EEC90E09093DA
:1018E00037098093360910933809B0933909A093CA
:1018F0003A09F0933B09E0933C0910924009109299
:101900003F09209341093093420940934309509382
:10191000440970933E0960933D098FEE97E09093E0
:101920004A098093490983E398E090934C09809396
:101930004B0985ED90E090934E0980934D0984ED1D
:1019400090E09093500980934F0980ED90E0909340
:1019500052098093510981ED90E09093540980934E
:10196000530986ED90E090935609809355091093A2
:101970005709B0935809A0935909F0935A09E09375
:101980005B0910925F0910925E0920936009309301
:101990006109409362095093630970935D096093F4
:1019A0005C0987E798E090936909809368098BEB5D
:1019B00098E090936B0980936A0985E391E0909396
:1019C0006D0980936C0984E391E090936F09809393
:1019D0006E0980E391E0909371098093700981E32F
:1019E00091E0909373098093720986E391E090935C
:1019F00075098093740910937609B0937709A093C1
:101A00007809F0937909E0937A091F910895CF93AB
:101A1000DF930E94F7060E941706CEE3D9E00E94EA
:101A2000E4032097E1F30E943E09F9CFCF92DF92C1
:101A3000EF92FF920F931F93CF93DF937C016B0183
:101A40008A01C0E0D0E00FC0D6016D916D01D701D1
:101A5000ED91FC910190F081E02DC7011995C80F1F
:101A6000D91F015010400115110571F7CE01DF910A
:101A7000CF911F910F91FF90EF90DF90CF9008953D
:101A8000EF92FF920F931F938C01DC01ED91FC917B
:101A90000190F081E02D6DE019957C01D801ED9168
:101AA000FC910190F081E02DC8016AE019959C013C
:101AB0002E0D3F1DC9011F910F91FF90EF900895CA
:101AC000CF93DF93DB010D900020E9F71197A61B60
:101AD000B70BEC01E881F9810280F381E02DAD01C3
:101AE0001995DF91CF910895EF92FF920F931F9375
:101AF0007C010E94600D8C01C7010E94400D080FFF
:101B0000191FC8011F910F91FF90EF900895823027
:101B1000B9F0833028F4882351F0813051F50AC0A0
:101B2000843011F18430E8F0853019F520C010922E
:101B30006E00089580916F008D7F80936F000895EF
:101B4000809170008D7F8093700081E08093B00061
:101B50008091B100887F84608093B1001092B300BF
:101B600008951092710008951092720008951092D5
:101B7000730008951F93182F8091B306811711F0F9
:101B80009FEF06C0E4E0F2E094918FEF8093B306FC
:101B9000892F0E94870D812F60E00E9427081F91E6
:101BA00008951F920F920FB60F920BB60F92112449
:101BB0002F933F934F935F936F937F938F939F9355
:101BC000AF93BF93EF93FF938091890990918A0916
:101BD000A0918B09B0918C090097A105B10551F135
:101BE000E0918D09F0918E09808190918F0989276C
:101BF00080838091890990918A09A0918B09B09185
:101C00008C09181619061A061B06C4F48091890956
:101C100090918A09A0918B09B0918C090197A10933
:101C2000B1098093890990938A09A0938B09B09395
:101C30008C0904C08091B3060E94BA0DFF91EF9108
:101C4000BF91AF919F918F917F916F915F914F91D4
:101C50003F912F910F900BBE0F900FBE0F901F90D2
:101C600018952F923F925F926F927F928F929F92E0
:101C7000AF92BF92CF92DF92EF92FF920F931F939A
:101C8000DF93CF9300D00F92CDB7DEB7A82F1B0103
:101C900029833A834B835C838091B3068A1721F4AE
:101CA000E4E0F2E0549003C18F3F09F0BEC2A0937C
:101CB000B306E4E0F2E054902FEF521609F4B5C2F7
:101CC00082E0581609F45BC085153CF0552089F078
:101CD00091E0591609F0EBC02CC0B4E05B1609F492
:101CE0009AC05B160CF471C0E5E05E1609F0DFC027
:101CF000B8C014BC15BC84B5826084BD85B5816054
:101D000085BD2A2F30E0F901EE5CFE4FE491F0E052
:101D1000EE0FFF1FE250FF4F859194919093800941
:101D200080937F0928583E4FF9018491809381095F
:101D3000C0C0109280001092810080918100886064
:101D400080938100809181008160809381002A2F9F
:101D500030E0F901EE5CFE4FE491F0E0EE0FFF1F82
:101D6000E250FF4F85919491909387098093860963
:101D700028583E4FF9018491809388099AC01092A7
:101D8000B0001092B1008091B00082608093B000EA
:101D90008091B10081608093B1002A2F30E0F90179
:101DA000EE5CFE4FE491F0E0EE0FFF1FE250FF4FBC
:101DB0008591949190938E0980938D0928583E4F78
:101DC000F901849180938F0974C010929000109251
:101DD00091008091910088608093910080919100A2
:101DE0008160809391002A2F30E0F901EE5CFE4F74
:101DF000E491F0E0EE0FFF1FE250FF4F85919491C8
:101E0000909395098093940928583E4FF901849145
:101E1000809396094EC01092A0001092A10080916C
:101E2000A10088608093A1008091A10081608093CF
:101E3000A1002A2F30E0F901EE5CFE4FE491F0E0C2
:101E4000EE0FFF1FE250FF4F8591949190939C09F4
:101E500080939B0928583E4FF901849180939D09F6
:101E600028C01092200110922101809121018860E8
:101E700080932101809121018160809321012A2F8B
:101E800030E0F901EE5CFE4FE491F0E0EE0FFF1F51
:101E9000E250FF4F859194919093A3098093A209FA
:101EA00028583E4FF90184918093A40902C057FC41
:101EB000BCC18A2F61E00E948D07552021F0F2E01D
:101EC0005F1609F0BEC031018824992460E072E1F8
:101ED0008AE790E0A40193010E94A11159016A01CF
:101EE000860175010894E108F108010911092FEF35
:101EF000E216F1040105110509F008F499C060E447
:101F000072E48FE090E0A40193010E94A111790195
:101F10008A010894E108F1080109110982E05816C4
:101F2000C1F49FEFE916F1040105110509F008F469
:101F300084C060E970ED83E090E0A40193010E9409
:101F4000A11179018A010894E108F1080109110938
:101F500083E0AFEFEA16F1040105110509F008F47A
:101F600068C068E478EE81E090E0A40193010E94EB
:101F7000A11179018A010894E108F1080109110908
:101F8000552011F483E01DC0B2E05B1611F084E02F
:101F900018C0EFEFEE16F1040105110509F008F481
:101FA00042C164E274EF80E090E0A40193010E94DA
:101FB000A11179018A010894E108F10801091109C8
:101FC00085E0FFEFEF16F1040105110591F188F1AD
:101FD00062E17AE780E090E0A40193010E94A11100
:101FE00079018A010894E108F108010911095520D5
:101FF00011F086E001C084E02FEFE216F104010544
:102000001105B9F0B0F0C601B50120E034E040E0C0
:1020100050E00E94A11179018A010894E108F108B9
:1020200001091109552011F087E008C085E003C0BF
:1020300081E0552019F485BD58C082E08093B1003D
:1020400054C05101CC24DD2460E072E18AE790E0C5
:10205000A60195010E94A11179018A010894E10865
:10206000F1080109110980E0E81680E0F80681E036
:10207000080780E0180710F491E010C068E478EEDB
:1020800081E090E0A60195010E94A11179018A01E9
:102090000894E108F1080109110993E0A1E05A163A
:1020A00039F480918100887F982B909381001DC026
:1020B000B3E05B1639F480919100887F982B909360
:1020C000910013C0E4E05E1639F48091A100887F8E
:1020D000982B9093A10009C0F5E05F1631F4809130
:1020E0002101887F982B9093210189819A81AB816E
:1020F000BC810097A105B10529F48FEF9FEFAFEFE9
:10210000BFEF13C0220C331CB10180E090E02981A5
:102110003A814B815C810E944D1128EE33E040E012
:1021200050E00E947F11C901DA01E2E05E16A9F1D8
:10213000E5153CF0552081F0F1E05F1609F075C01F
:102140001AC024E0521609F44AC05216B4F1E5E070
:102150005E1609F06AC055C0E7BC80937B09909376
:102160007C09A0937D09B0937E0980916E00826006
:1021700080936E005AC0F0928900E09288008093AC
:10218000820990938309A0938409B0938509809173
:102190006F00826080936F0048C0E092B30080932C
:1021A000890990938A09A0938B09B0938C09809137
:1021B000700082608093700038C0F0929900E092C5
:1021C00098008093900990939109A0939209B093FD
:1021D00093098091710082608093710026C0F09213
:1021E000A900E092A8008093970990939809A09382
:1021F0009909B0939A09809172008260809372006D
:1022000014C0F0922901E092280180939E099093D6
:102210009F09A093A009B093A109809173008260E7
:102220008093730002C084E009CF0F900F900F904D
:102230000F90CF91DF911F910F91FF90EF90DF9062
:10224000CF90BF90AF909F908F907F906F905F9056
:102250003F902F900895EF92FF920F931F937B0171
:102260008C01611571058105910529F420E030E0AC
:1022700040E050E00BC00E948601A80197010E9437
:10228000A111AC01CB01DA019C01AD01B901CA0178
:102290001F910F91FF90EF900895629FD001739F5F
:1022A000F001829FE00DF11D649FE00DF11D929FF2
:1022B000F00D839FF00D749FF00D659FF00D992731
:1022C000729FB00DE11DF91F639FB00DE11DF91F55
:1022D000BD01CF011124089597FB092E07260AD0CE
:1022E00077FD04D049D006D000201AF4709561958E
:1022F0007F4F0895F6F7909581959F4F0895A1E23D
:102300001A2EAA1BBB1BFD010DC0AA1FBB1FEE1F6F
:10231000FF1FA217B307E407F50720F0A21BB30BBA
:10232000E40BF50B661F771F881F991F1A9469F736
:1023300060957095809590959B01AC01BD01CF0192
:10234000089597FB092E05260ED057FD04D0D7DF40
:102350000AD0001C38F450954095309521953F4F98
:102360004F4F5F4F0895F6F7909580957095619562
:102370007F4F8F4F9F4F0895AA1BBB1B51E107C092
:10238000AA1FBB1FA617B70710F0A61BB70B881F05
:10239000991F5A95A9F780959095BC01CD01089594
:1023A000EE0FFF1F0590F491E02D19942F923F92AC
:1023B0004F925F926F927F928F929F92AF92BF9255
:1023C000CF92DF92EF92FF920F931F93CF93DF9301
:1023D000CDB7DEB7CA1BDB0B0FB6F894DEBF0FBE5E
:1023E000CDBF19942A88398848885F846E847D849B
:1023F0008C849B84AA84B984C884DF80EE80FD80AD
:102400000C811B81AA81B981CE0FD11D0FB6F89422
:0E241000DEBF0FBECDBFED010895F894FFCFE3
:10241E0070726573736564000100000003000400B0
:10242E00050006000700080009000A00010002006E
:10243E0003000400050006000700040002008813D4
:10244E000000D0070000FA005802060106018801BC
:10245E008801B801B801880100005D015D015D01D0
:10246E004A014A012601260106014A014A014A0192
:10247E0006014A018801C4000601C400A500B80186
:10248E00EE01D201B801C4004A0170035D0188015A
:10249E004A0106012601F7004A012601060126011E
:1024AE004A014A014A012601260126014A018801F4
:1024BE0088014A012601060126014A014A014A0104
:1024CE00260126014A012601060106014A0188015C
:1024DE00880188018801B80188014A0106010601B8
:1024EE002601260126014A0106014A0188018801BA
:1024FE0088018801B80188014A01060126010601FA
:10250E008801880188010B024A014A014A018801AB
:10251E000601060106014A018801260106014A014B
:10252E0088014A015D015D0126014A014A01060149
:10253E0006014A0188014A015D015D01260126015D
:10254E00060106010601260126018801880188017F
:10255E005D014A012601060106010601F700DC00B5
:10256E00C400060106010601F700DC00C4000601E6
:10257E000601260126018801880188015D014A01B4
:10258E002601EE01060126015D01B8015D0126015D
:10259E005D014A014A0126015D01B801B8018801B9
:1025AE0088015D015D01B801B801B80188015D01C6
:1025BE008801880188015D015D015D014A012601E6
:1025CE004A014A010400040004000400040004004F
:1025DE0004001000080008000800080008000400AD
:1025EE0004000400040004000600040006000300BA
:1025FE0002000200030003000300040004000600B2
:10260E000400040006000400060005000400040097
:10261E00040006000400030003000300030003008F
:10262E000300020003000300020003000300020087
:10263E000300030003000300030003000200030075
:10264E000300030003000200020002000200040067
:10265E000400020002000200020002000200040058
:10266E000200020004000200020002000400040046
:10267E00020002000200020001000100010002003F
:10268E00020002000200020002000200020002002C
:10269E000200020002000100010004000400040018
:1026AE0004000800080004000800080004000400EC
:1026BE0004000400040008000800080008000200DE
:1026CE0002000200020002000400040004000400E4
:1026DE0002000400040004000400040002000200D2
:1026EE0004000400040004000200020002000200C4
:1026FE0002000200040004000400040002000400B2
:10270E0001000100040004000400040004000200A3
:10271E000200040001000400020004000200040094
:10272E000200040002000400040004000400020081
:10273E00040004000200040004000400040002006F
:10274E00020004000400040004000400040004005D
:10275E00040002000400040004000400040004004D
:10276E00040004000400040004000400040004003B
:10277E00040004000400040004000400040004002B
:10278E00040004000400040004000400040004001B
:10279E000400040004000200020002000200020015
:1027AE00020001000200020001000200020001000E
:1027BE0002000200020002000200020001000200FC
:1027CE0002000200020001000200020002000400EA
:1027DE0004000200020002000200020002000100DA
:1027EE0002000200010002000200020004000400C8
:1027FE0002000200020002000100010001000300BD
:10280E0003000300030003000300030003000300A2
:10281E000300030003000200020002000200020097
:10282E000200040004000200040004000200020082
:10283E000200020002000400040004000400040070
:10284E000200020002000200040004000400040062
:10285E00020002000400050005000500020002004F
:10286E000400050005000500020001000200020040
:10287E000200020004000400040004000200010033
:10288E000100010004000400040004000100020025
:10289E000300040001000300020003000200030015
:1028AE000200030002000400040004000400020001
:1028BE0002000300020003000400040003000200F3
:1028CE00020001FF00000000AD0B160D410B720B54
:0428DE00520B9B0BF3
:00000001FF
