:100000000C9404010C9431010C9431010C943101D5
:100010000C9431010C9431010C9431010C94310198
:100020000C9431010C9431010C9431010C94310188
:100030000C9431010C94450C0C9431010C94310159
:100040000C9431010C9431010C9431010C94310168
:100050000C9431010C9431010C9431010C94110574
:100060000C9431010C9416070C9442080C94310145
:100070000C9431010C9431010C9431010C94310138
:100080000C9431010C9431010C9431010C94310128
:100090000C944F070C948F080C9431010C9431018F
:1000A0000C9431010C9431010C9431010C94310108
:1000B0000C9431010C9431010C9431010C943101F8
:1000C0000C9431010C9431010C9431010C9488078B
:1000D0000C94DC080C9431010C94C1070C94290990
:1000E0000C94310100002100240027002A002D007B
:1000F0003000330001010000040107010A01000083
:100100002200250028002B002E00310034000201BF
:100110000000050108010B0100002000230026005B
:1001200029002C002F00320000010000030106010D
:10013000090105050505070508080808020202026D
:100140000A0A080804040404010101010101010173
:100150000303030303030303040707070C0C0C0C3E
:100160000C0C0C0C02020202060606060606060627
:100170000B0B0B0B0B0B0B0B0102102020080810B4
:100180002040102040800201020108040201010207
:1001900004081020408080402010080402018004E0
:1001A000020180402010080402010804020101023B
:1001B0000408102040800102040810204080000044
:1001C000090A02080B0C0D070603040100000000D9
:1001D000000000000000000000000000000000001F
:1001E0000000000000000000000011100F000000DF
:1001F00000000000000000000000000000000000FF
:10020000000000000200A40A11241FBECFEFD1E2BB
:10021000DEBFCDBF00E00CBF16E0A0E0B2E0E6E03C
:10022000F1E200E00BBF02C007900D92A035B107CC
:10023000D9F71BBE19E0A0E5B6E001C01D92A732B8
:10024000B107E1F712E0C8E0D2E004C02297FE0156
:100250000E944610C630D107C9F70E94C20B0C9409
:1002600081100C940000A0E0B0E0E9E3F1E00C9410
:100270005210EC01A880B980CA80DB80A114B104BF
:10028000C104D10441F484E2A82E89EDB82E8BE597
:10029000C82E87E0D82EC601B5012DE133EF41E02D
:1002A00050E00E94151027EA31E440E050E00E943F
:1002B000C10F7B018C01C601B5012DE133EF41E097
:1002C00050E00E941510CA01B9012CEE34EF4FEF37
:1002D0005FEF0E94C10F6E0D7F1D801F911F97FF62
:1002E00004C06150704080409048688379838A835D
:1002F0009B839B01AC015F77B901CA01CDB7DEB723
:10030000EAE00C946E100E943301089580E092E0C0
:100310000E9433010895609300027093010280935C
:1003200002029093030208950F931F93CF93DF93DC
:10033000C0E0D0E0FE01EE5AFC4F00811181FE01C9
:10034000E255FB4F6081718188EE93E00E94E00FDF
:100350009B01442737FD4095542F80912202B8011C
:100360000E94A50CFE01E65FF94F6081718188EE65
:1003700093E00E94E00F882777FD8095982F0E94D8
:100380005905809122020E942E0C2296C433D10579
:1003900089F668EE73E080E090E00E945905DF91F5
:1003A000CF911F910F9108950F931F93CF93DF93D8
:1003B000C0E0D0E0FE01EC5FFC4F00811181FE0146
:1003C000E05AFB4F6081718188EE93E00E94E00F5C
:1003D0009B01442737FD4095542F80912202B8019C
:1003E0000E94A50CFE01E454FA4F6081718188EEF1
:1003F00093E00E94E00F882777FD8095982F0E9458
:100400005905809122020E942E0C2296CE34D105ED
:1004100089F668EE73E080E090E00E945905DF9174
:10042000CF911F910F9108950F931F93CF93DF9357
:10043000C0E0D0E0FE01E252FD4F00811181FE01DB
:10044000E65CFB4F6081718188EE93E00E94E00FD3
:100450009B01442737FD4095542F80912202B8011B
:100460000E94A50CFE01EA56FA4F6081718188EE68
:1004700093E00E94E00F882777FD8095982F0E94D7
:100480005905809122020E942E0C2296C632D10577
:1004900089F668EE73E080E090E00E945905DF91F4
:1004A000CF911F910F9108950F931F93CF93DF93D7
:1004B000C0E0D0E0FE01EE53FD4F00811181FE014E
:1004C000E25EFB4F6081718188EE93E00E94E00F55
:1004D0009B01442737FD4095542F80912202B8019B
:1004E0000E94A50CFE01E658FA4F6081718188EEEA
:1004F00093E00E94E00F882777FD8095982F0E9457
:100500005905809122020E942E0C2296CC31D105F1
:1005100089F668EE73E080E090E00E945905DF9173
:10052000CF911F910F9108950F931F93CF93DF9356
:10053000C0E0D0E0FE01E457FD4F00811181FE01D3
:10054000E851FC4F6081718188EE93E00E94E00FDA
:100550009B01442737FD4095542F80912202B8011A
:100560000E94A50CFE01EC5BFA4F6081718188EE60
:1005700093E00E94E00F882777FD8095982F0E94D6
:100580005905809122020E942E0C2296C633D10575
:1005900089F668EE73E080E090E00E945905DF91F3
:1005A000CF911F910F9108950F931F93CF93DF93D6
:1005B000C0E0D0E0FE01E65AFD4F00811181FE014E
:1005C000EA54FC4F6081718188EE93E00E94E00F55
:1005D0009B01442737FD4095542F80912202B8019A
:1005E0000E94A50CFE01EE5EFA4F6081718188EEDB
:1005F00093E00E94E00F882777FD8095982F0E9456
:100600005905809122020E942E0C2296C233D105F8
:1006100089F668EE73E080E090E00E945905DF9172
:10062000CF911F910F9108950F931F93CF93DF9355
:10063000C0E0D0E0FE01E45DFD4F00811181FE01CC
:10064000EA57FC4F6081718188EE93E00E94E00FD1
:100650009B01442737FD4095542F80912202B80119
:100660000E94A50CFE01EE51FB4F6081718188EE66
:1006700093E00E94E00F882777FD8095982F0E94D5
:100680005905809122020E942E0C2296C033D1057A
:1006900089F668EE73E080E090E00E945905DF91F2
:1006A000CF911F910F910895EF92FF920F931F9397
:1006B0007C010027F7FC0095102FC801B7010E94AC
:1006C0009F0F9B01AC018091520690915306A0911F
:1006D0005406B091550682179307A407B50769F32E
:1006E0002093520630935306409354065093550678
:1006F000B901CA011F910F91FF90EF90089588E012
:1007000090E00E945403633071058105910581F1E9
:10071000643071058105910584F4613071058105AE
:10072000910501F16230710581059105F4F46115BF
:1007300071058105910519F30895653071058105ED
:100740009105E1F06530710581059105A4F06630F1
:10075000710581059105A9F0673071058105910545
:10076000A9F412C00E94140308950E94D4020895AF
:100770000E94940208950E94540208950E94140257
:1007800008950E94D40108950E94940108958091D3
:1007900050060E94140690935706809356062091A7
:1007A000280230912902281739071CF441E050E053
:1007B0007EC0809114020E94140690935706809385
:1007C00056062091280230912902281739071CF477
:1007D00042E050E06CC0809116020E941406909393
:1007E0005706809356062091280230912902281737
:1007F00039071CF443E050E05AC0809118020E946F
:100800001406909357068093560620912802309143
:100810002902281739071CF444E050E048C08091B1
:100820001A020E9414069093570680935606209150
:10083000280230912902281739071CF445E050E0BE
:1008400036C080911C020E94140690935706809334
:1008500056062091280230912902281739071CF4E6
:1008600046E050E024C080911E020E94140690933E
:1008700057068093560620912802309129022817A6
:1008800039071CF447E050E012C0809120020E941A
:1008900014069093570680935606209128023091B3
:1008A0002902281739070CF072CF48E050E0209158
:1008B00056063091570680912A0290912B022817F4
:1008C00039070CF07CC044305105D9F14530510551
:1008D0005CF44230510509F14330510544F5413093
:1008E000510509F062C00FC046305105F1F14630A4
:1008F00051058CF14730510509F441C0483051058C
:1009000009F053C046C08091040261E00E94E206F3
:100910000E947F038091040245C08091060261E03D
:100920000E94E2060E947F03809106023BC08091F4
:10093000080261E00E94E2060E947F0380910802A3
:1009400031C080910A0261E00E94E2060E947F03AA
:1009500080910A0227C080910C0261E00E94E206A9
:100960000E947F0380910C021DC080910E0261E005
:100970000E94E2060E947F0380910E0213C08091C4
:10098000100261E00E94E2060E947F038091100243
:1009900009C08091120261E00E94E2060E947F037A
:1009A0008091120260E00E94E20660912402709140
:1009B000250280912602909127020E9459050895F0
:1009C00081E898E040E855E260E070E00E94760936
:1009D0008091040261E00E9448068091060261E075
:1009E0000E9448068091080261E00E9448068091BA
:1009F0000A0261E00E94480680910C0261E00E94B8
:100A0000480680910E0261E00E9448068091100223
:100A100061E00E9448068091120261E00E9448064F
:100A200008951F920F920FB60F9211242F933F93A8
:100A30008F939F93AF93BF9380915C0690915D06D7
:100A4000A0915E06B0915F06309160060196A11DEF
:100A5000B11D232F2D5F2D3720F02D570196A11D9D
:100A6000B11D2093600680935C0690935D06A09371
:100A70005E06B0935F068091580690915906A0914A
:100A80005A06B0915B060196A11DB11D80935806D0
:100A900090935906A0935A06B0935B06BF91AF910D
:100AA0009F918F913F912F910F900FBE0F901F90AC
:100AB00018959B01AC017FB7F894809158069091EE
:100AC0005906A0915A06B0915B0666B5A89B05C071
:100AD0006F3F19F00196A11DB11D7FBFBA2FA92F3D
:100AE000982F8827860F911DA11DB11D62E0880FE8
:100AF000991FAA1FBB1F6A95D1F7BC012DC0FFB774
:100B0000F8948091580690915906A0915A06B09198
:100B10005B06E6B5A89B05C0EF3F19F00196A11D45
:100B2000B11DFFBFBA2FA92F982F88278E0F911DB7
:100B3000A11DB11DE2E0880F991FAA1FBB1FEA95F6
:100B4000D1F7861B970B885E9340C8F22150304046
:100B50004040504068517C4F2115310541055105F9
:100B600071F60895789484B5826084BD84B58160FF
:100B700084BD85B5826085BD85B5816085BDEEE6A5
:100B8000F0E0808181608083E1E8F0E01082808184
:100B900082608083808181608083E0E8F0E08081F2
:100BA00081608083E1EBF0E0808184608083E0EB12
:100BB000F0E0808181608083E1E9F0E08081826003
:100BC0008083808181608083E0E9F0E080818160C2
:100BD0008083E1EAF0E080818260808380818160AF
:100BE0008083E0EAF0E0808181608083E1E2F1E0EF
:100BF000808182608083808181608083E0E2F1E097
:100C0000808181608083EAE7F0E080818460808376
:100C10008081826080838081816080838081806820
:100C200080831092C1000895382F863308F0365320
:100C300020917B00832F86958695869590E0817024
:100C4000907043E0880F991F4A95E1F7277F282B82
:100C500020937B00377080913E068295880F880F25
:100C6000807C832B80937C0080917A0080648093C9
:100C70007A0080917A0086FDFCCF20917800409127
:100C80007900942F80E030E0282B392BC90108959A
:100C9000482F50E0CA0188589E4FFC0124914E5CB9
:100CA0005E4FFA0184918823C1F0E82FF0E0EE0F47
:100CB000FF1FEC51FF4FA591B491662341F49FB7FC
:100CC000F8948C91209582238C939FBF08959FB7B1
:100CD000F8948C91822B8C939FBF0895893009F4EE
:100CE00049C08A30A0F4843051F1853040F482301C
:100CF00079F1833000F5813009F063C026C0873078
:100D000079F1883098F5863009F05BC025C08D30C8
:100D100009F442C08E3028F48B30B1F18C30C0F52C
:100D20002DC0803109F442C0813109F445C08F30B3
:100D300009F047C037C0809180008F7703C0809151
:100D400080008F7D80938000089584B58F7702C0E6
:100D500084B58F7D84BD08958091B0008F7703C0E6
:100D60008091B0008F7D8093B000089580919000B5
:100D70008F7707C0809190008F7D03C08091900095
:100D8000877F8093900008958091A0008F7707C09F
:100D90008091A0008F7D03C08091A000877F809309
:100DA000A0000895809120018F7703C080912001D9
:100DB0008F7D80932001089580912001877F80930B
:100DC00020010895FF920F931F93F62E482F50E0B5
:100DD000CA0182549E4FFC012491CA0188589E4F3B
:100DE000FC0114914E5C5E4FFA0104910023C9F09E
:100DF000222319F0822F0E946E06E02FF0E0EE0F02
:100E0000FF1FE250FF4FA591B4919FB7F894FF20C8
:100E100021F48C911095812302C08C91812B8C93AD
:100E20009FBF1F910F91FF90089508951F920F92F9
:100E30000FB60F920BB60F9211242F933F934F933F
:100E40008F939F93EF93FF934091C6002091A1064B
:100E50003091A2062F5F3F4F2F7330708091A30611
:100E60009091A4062817390759F0E091A106F09156
:100E7000A206EF59F94F40833093A2062093A106B2
:100E8000FF91EF919F918F914F913F912F910F90F3
:100E90000BBE0F900FBE0F901F90189508951F92D4
:100EA0000F920FB60F920BB60F9211242F933F9310
:100EB0004F938F939F93EF93FF934091CE00209198
:100EC000290730912A072F5F3F4F2F733070809191
:100ED0002B0790912C072817390759F0E091290723
:100EE000F0912A07E751F94F408330932A07209366
:100EF0002907FF91EF919F918F914F913F912F91F2
:100F00000F900BBE0F900FBE0F901F901895089575
:100F10001F920F920FB60F920BB60F9211242F93C0
:100F20003F934F938F939F93EF93FF934091D600FE
:100F30002091B1073091B2072F5F3F4F2F73307070
:100F40008091B3079091B4072817390759F0E091C1
:100F5000B107F091B207EF58F84F40833093B207D2
:100F60002093B107FF91EF919F918F914F913F9106
:100F70002F910F900BBE0F900FBE0F901F901895E2
:100F800008951F920F920FB60F920BB60F92112475
:100F90002F933F934F938F939F93EF93FF934091A2
:100FA00036012091390830913A082F5F3F4F2F7357
:100FB000307080913B0890913C082817390759F010
:100FC000E0913908F0913A08E750F84F40833093A8
:100FD0003A0820933908FF91EF919F918F914F919B
:100FE0003F912F910F900BBE0F900FBE0F901F904F
:100FF0001895E0918D08F0918E08E05CFF4F81918B
:10100000919120813181821B930B8F739070892B7A
:1010100011F00E941507E091AC08F091AD08E05C7A
:10102000FF4F8191919120813181821B930B8F73AE
:101030009070892B11F00E944E07E091CB08F0913F
:10104000CC08E05CFF4F8191919120813181821B1E
:10105000930B8F739070892B11F00E948707E0919A
:10106000EA08F091EB08E05CFF4F819191912081BB
:101070003181821B930B8F739070892B11F00E942A
:10108000C00708951F920F920FB60F920BB60F92E2
:1010900011242F933F934F935F936F937F938F937D
:1010A0009F93AF93BF93EF93FF932091E506309109
:1010B000E6068091E7069091E8062817390731F493
:1010C0008091C1008F7D8093C10016C0E091E7063A
:1010D000F091E806EB55F94F40818091E706909139
:1010E000E806019660E470E00E94E00F9093E80645
:1010F0008093E7064093C600FF91EF91BF91AF91B7
:101100009F918F917F916F915F914F913F912F911F
:101110000F900BBE0F900FBE0F901F9018951F924F
:101120000F920FB60F920BB60F9211242F933F938D
:101130004F935F936F937F938F939F93AF93BF93DF
:10114000EF93FF9320916D0730916E0780916F07A9
:10115000909170072817390731F48091C9008F7D6D
:101160008093C90016C0E0916F07F0917007E35DAE
:10117000F84F408180916F0790917007019660E46D
:1011800070E00E94E00F9093700780936F07409388
:10119000CE00FF91EF91BF91AF919F918F917F9181
:1011A0006F915F914F913F912F910F900BBE0F90D8
:1011B0000FBE0F901F9018951F920F920FB60F92AF
:1011C0000BB60F9211242F933F934F935F936F931E
:1011D0007F938F939F93AF93BF93EF93FF93209150
:1011E000F5073091F6078091F7079091F8072817D7
:1011F000390731F48091D1008F7D8093D10016C0E2
:10120000E091F707F091F807EB54F84F4081809197
:10121000F7079091F807019660E470E00E94E00FF4
:101220009093F8078093F7074093D600FF91EF91D2
:10123000BF91AF919F918F917F916F915F914F91EE
:101240003F912F910F900BBE0F900FBE0F901F90EC
:1012500018951F920F920FB60F920BB60F92112492
:101260002F933F934F935F936F937F938F939F93AE
:10127000AF93BF93EF93FF9320917D0830917E0849
:1012800080917F08909180082817390731F4809168
:1012900031018F7D8093310116C0E0917F08F0917C
:1012A0008008E35CF74F408180917F08909180082F
:1012B000019660E470E00E94E00F909380088093B4
:1012C0007F0840933601FF91EF91BF91AF919F91BD
:1012D0008F917F916F915F914F913F912F910F90DF
:1012E0000BBE0F900FBE0F901F901895AF92BF923C
:1012F000DF92EF92FF920F931F93CF93DF93EC0156
:101300007A018B01DD24403081EE580780E06807C8
:1013100080E0780711F0DD24D39491E0A92EB12C60
:10132000EC89FD89DD2069F0C5010E8C02C0880FB3
:10133000991F0A94E2F7808360E079E08DE390E002
:1013400005C0108260E874E88EE190E0A801970182
:101350000E94F30F21503040404050405695479531
:101360003795279580E12030380720F0DD2011F0F7
:10137000DD24D6CFE889F9893083EA89FB89208387
:10138000EE89FF89408121E030E0C9010A8C02C06A
:10139000880F991F0A94E2F7482B4083EE89FF8952
:1013A0004081C9010B8C02C0880F991F0A94E2F793
:1013B000482B4083EE89FF894081C9010C8C02C013
:1013C000880F991F0A94E2F7482B4083EE89FF8922
:1013D00080810D8C02C0220F331F0A94E2F7209502
:1013E00028232083DF91CF911F910F91FF90EF90E1
:1013F000DF90BF90AF900895DC011C96ED91FC91B9
:101400001D97E05CFF4F2191319180819181281BD4
:10141000390B2F733070C9010895DC011C96ED91D2
:10142000FC911D97E05CFF4F20813181E054F0403A
:10143000DF01AE5BBF4F8D919C9111972817390743
:1014400019F42FEF3FEF07C08D919C91E80FF91F22
:101450008081282F30E0C9010895DC011C96ED91B0
:10146000FC911D97E05CFF4F20813181E054F040FA
:10147000DF01AE5BBF4F8D919C9111972817390703
:1014800019F42FEF3FEF10C08D919C911197E80F49
:10149000F91F20818D919C91119701968F73907007
:1014A00011969C938E9330E0C9010895FC018685C6
:1014B0009785DC01A05CBF4FFC01EE5BFF4F2D91D7
:1014C0003C9111978081918128173907C1F70895C0
:1014D000CF93DF93EC01462FEE85FF85E05CFF4F55
:1014E00080819181E054F040019660E470E00E94B8
:1014F000E00F9C01DF01AE5BBF4F8D919C91119776
:1015000028173907D1F3E05CFF4F80819181E054C7
:10151000F040E80FF91F4083EE85FF85E05CFF4F48
:1015200031832083EE89FF89208181E090E00D8C5A
:1015300002C0880F991F0A94E2F7282B208381E0CC
:1015400090E0DF91CF9108951F931092840810923C
:10155000830828EE33E040E050E020938508309384
:101560008608409387085093880864E476E0709377
:1015700082086093810881E696E090938E088093BC
:101580008D0885EA96E09093900880938F0885EC0B
:1015900090E0909392088093910884EC90E090936F
:1015A00094088093930880EC90E090939608809341
:1015B000950881EC90E0909398088093970886ECCA
:1015C00090E090939A088093990814E010939B08F8
:1015D000B3E0B0939C08A7E0A0939D08F5E0F093DA
:1015E0009E08E1E0E0939F081092A3081092A208E1
:1015F0002093A4083093A5084093A6085093A70809
:101600007093A1086093A00889EE96E09093AD08CE
:101610008093AC088DE297E09093AF088093AE087A
:101620008DEC90E09093B1088093B0088CEC90E042
:101630009093B3088093B20888EC90E09093B5083B
:101640008093B40889EC90E09093B7088093B60833
:101650008EEC90E09093B9088093B8081093BA0884
:10166000B093BB08A093BC08F093BD08E093BE08FC
:101670001092C2081092C1082093C3083093C40886
:101680004093C5085093C6087093C0086093BF0884
:1016900081E797E09093CC088093CB0885EB97E0A7
:1016A0009093CE088093CD0885ED90E09093D0087C
:1016B0008093CF0884ED90E09093D2088093D10876
:1016C00080ED90E09093D4088093D30881ED90E072
:1016D0009093D6088093D50886ED90E09093D80833
:1016E0008093D7081093D908B093DA08A093DB0849
:1016F000F093DC08E093DD081092E1081092E00816
:101700002093E2083093E3084093E4085093E508FF
:101710007093DF086093DE0889EF97E09093EB0801
:101720008093EA088DE398E09093ED088093EC08AD
:1017300085E391E09093EF088093EE0884E391E0D5
:101740009093F1088093F00880E391E09093F30880
:101750008093F20881E391E09093F5088093F40878
:1017600086E391E09093F7088093F6081093F808C9
:10177000B093F908A093FA08F093FB08E093FC08F3
:101780001F910895CF93DF930E94B2050E94E00459
:10179000C9EFD7E00E94C7032097E1F30E94F90741
:1017A000F9CFCF92DF92EF92FF920F931F93CF93D7
:1017B000DF937C016B018A01C0E0D0E00FC0D6014D
:1017C0006D916D01D701ED91FC910190F081E02DBB
:1017D000C7011995C80FD91F0150104001151105F7
:1017E00071F7CE01DF91CF911F910F91FF90EF9094
:1017F000DF90CF9008958230B9F0833028F48823A9
:1018000051F0813051F50AC0843011F18430E8F094
:10181000853019F520C010926E00089580916F00F8
:101820008D7F80936F000895809170008D7F8093ED
:10183000700081E08093B0008091B100887F846067
:101840008093B1001092B300089510927100089532
:101850001092720008951092730008951F93182F2C
:1018600080913F06811711F09FEF06C0E4E0F2E09F
:1018700094918FEF80933F06892F0E94FB0B812F5D
:1018800060E00E94E2061F9108951F920F920FB62A
:101890000F920BB60F9211242F933F934F935F93A8
:1018A0006F937F938F939F93AF93BF93EF93FF9328
:1018B00080910B0990910C09A0910D09B0910E092E
:1018C0000097A105B10551F1E0910F09F0911009C0
:1018D0008081909111098927808380910B099091D3
:1018E0000C09A0910D09B0910E09181619061A06D7
:1018F0001B06C4F480910B0990910C09A0910D096D
:10190000B0910E090197A109B10980930B09909339
:101910000C09A0930D09B0930E0904C080913F06F5
:101920000E942E0CFF91EF91BF91AF919F918F91EB
:101930007F916F915F914F913F912F910F900BBECF
:101940000F900FBE0F901F9018952F923F925F92AD
:101950006F927F928F929F92AF92BF92CF92DF92BF
:10196000EF92FF920F931F93DF93CF9300D00F92CC
:10197000CDB7DEB7A82F1B0129833A834B835C8345
:1019800080913F068A1721F4E4E0F2E0549003C10D
:101990008F3F09F0BEC2A0933F06E4E0F2E054900E
:1019A0002FEF521609F4B5C282E0581609F45BC055
:1019B00085153CF0552089F091E0591609F0EBC0EF
:1019C0002CC0B4E05B1609F49AC05B160CF471C02D
:1019D000E5E05E1609F0DFC0B8C014BC15BC84B5E4
:1019E000826084BD85B5816085BD2A2F30E0F90114
:1019F000EE5CFE4FE491F0E0EE0FFF1FE250FF4F70
:101A000085919491909302098093010928583E4F43
:101A1000F901849180930309C0C010928000109254
:101A20008100809181008860809381008091810095
:101A30008160809381002A2F30E0F901EE5CFE4F37
:101A4000E491F0E0EE0FFF1FE250FF4F859194917B
:101A5000909309098093080928583E4FF901849111
:101A600080930A099AC01092B0001092B100809140
:101A7000B00082608093B0008091B100816080935B
:101A8000B1002A2F30E0F901EE5CFE4FE491F0E066
:101A9000EE0FFF1FE250FF4F859194919093100934
:101AA00080930F0928583E4FF901849180931109C2
:101AB00074C0109290001092910080919100886003
:101AC00080939100809191008160809391002A2FF2
:101AD00030E0F901EE5CFE4FE491F0E0EE0FFF1F05
:101AE000E250FF4F859194919093170980931609C6
:101AF00028583E4FF9018491809318094EC01092E6
:101B0000A0001092A1008091A10088608093A100A4
:101B10008091A10081608093A1002A2F30E0F9011B
:101B2000EE5CFE4FE491F0E0EE0FFF1FE250FF4F3E
:101B30008591949190931E0980931D0928583E4FDA
:101B4000F901849180931F0928C0109220011092FE
:101B500021018091210188608093210180912101E0
:101B60008160809321012A2F30E0F901EE5CFE4F65
:101B7000E491F0E0EE0FFF1FE250FF4F859194914A
:101B8000909325098093240928583E4FF9018491A8
:101B90008093260902C057FCBCC18A2F61E00E94D5
:101BA0004806552021F0F2E05F1609F0BEC0310171
:101BB0008824992460E072E18AE790E0A40193010F
:101BC0000E94151059016A01860175010894E10807
:101BD000F108010911092FEFE216F10401051105C1
:101BE00009F008F499C060E472E48FE090E0A40189
:101BF00093010E94151079018A010894E108F10807
:101C00000109110982E05816C1F49FEFE916F104A9
:101C10000105110509F008F484C060E970ED83E066
:101C200090E0A40193010E94151079018A010894A3
:101C3000E108F1080109110983E0AFEFEA16F104A8
:101C40000105110509F008F468C068E478EE81E048
:101C500090E0A40193010E94151079018A01089473
:101C6000E108F10801091109552011F483E01DC0B4
:101C7000B2E05B1611F084E018C0EFEFEE16F1044D
:101C80000105110509F008F442C164E274EF80E037
:101C900090E0A40193010E94151079018A01089433
:101CA000E108F1080109110985E0FFEFEF16F104E1
:101CB0000105110591F188F162E17AE780E090E099
:101CC000A40193010E94151079018A010894E1088A
:101CD000F10801091109552011F086E001C084E0E6
:101CE0002FEFE216F10401051105B9F0B0F0C601BD
:101CF000B50120E034E040E050E00E941510790189
:101D00008A010894E108F10801091109552011F030
:101D100087E008C085E003C081E0552019F485BD47
:101D200058C082E08093B10054C05101CC24DD241E
:101D300060E072E18AE790E0A60195010E9415102B
:101D400079018A010894E108F1080109110980E08C
:101D5000E81680E0F80681E0080780E0180710F434
:101D600091E010C068E478EE81E090E0A601950172
:101D70000E94151079018A010894E108F10801090F
:101D8000110993E0A1E05A1639F480918100887F0F
:101D9000982B909381001DC0B3E05B1639F48091BD
:101DA0009100887F982B9093910013C0E4E05E1619
:101DB00039F48091A100887F982B9093A10009C0ED
:101DC000F5E05F1631F480912101887F982B909384
:101DD000210189819A81AB81BC810097A105B10560
:101DE00029F48FEF9FEFAFEFBFEF13C0220C331C2E
:101DF000B10180E090E029813A814B815C810E94B1
:101E0000C10F28EE33E040E050E00E94F30FC9011B
:101E1000DA01E2E05E16A9F1E5153CF0552081F00B
:101E2000F1E05F1609F075C01AC024E0521609F4FB
:101E30004AC05216B4F1E5E05E1609F06AC055C01A
:101E4000E7BC8093FD089093FE08A093FF08B09331
:101E5000000980916E00826080936E005AC0F092FB
:101E60008900E09288008093040990930509A0936B
:101E70000609B093070980916F00826080936F001C
:101E800048C0E092B30080930B0990930C09A09393
:101E90000D09B0930E0980917000826080937000EC
:101EA00038C0F0929900E0929800809312099093C4
:101EB0001309A0931409B0931509809171008260F1
:101EC0008093710026C0F092A900E092A800809350
:101ED000190990931A09A0931B09B0931C098091CA
:101EE000720082608093720014C0F0922901E09227
:101EF00028018093200990932109A0932209B0938F
:101F000023098091730082608093730002C084E093
:101F100009CF0F900F900F900F90CF91DF911F91ED
:101F20000F91FF90EF90DF90CF90BF90AF909F9078
:101F30008F907F906F905F903F902F900895EF92D9
:101F4000FF920F931F937B018C0161157105810531
:101F5000910529F420E030E040E050E00BC00E9401
:101F60008601A80197010E941510AC01CB01DA018E
:101F70009C01AD01B901CA011F910F91FF90EF9033
:101F80000895629FD001739FF001829FE00DF11DC3
:101F9000649FE00DF11D929FF00D839FF00D749FE3
:101FA000F00D659FF00D9927729FB00DE11DF91F8F
:101FB000639FB00DE11DF91FBD01CF0111240895EC
:101FC00097FB092E07260AD077FD04D049D006D00A
:101FD00000201AF4709561957F4F0895F6F790955B
:101FE00081959F4F0895A1E21A2EAA1BBB1BFD01EC
:101FF0000DC0AA1FBB1FEE1FFF1FA217B307E407E8
:10200000F50720F0A21BB30BE40BF50B661F771F3F
:10201000881F991F1A9469F760957095809590951F
:102020009B01AC01BD01CF01089597FB092E052648
:102030000ED057FD04D0D7DF0AD0001C38F45095DD
:102040004095309521953F4F4F4F5F4F0895F6F7DC
:1020500090958095709561957F4F8F4F9F4F089514
:10206000AA1BBB1B51E107C0AA1FBB1FA617B707BE
:1020700010F0A61BB70B881F991F5A95A9F78095DA
:102080009095BC01CD010895EE0FFF1F0590F491CE
:10209000E02D19942F923F924F925F926F927F9210
:1020A0008F929F92AF92BF92CF92DF92EF92FF9268
:1020B0000F931F93CF93DF93CDB7DEB7CA1BDB0B14
:1020C0000FB6F894DEBF0FBECDBF19942A883988A9
:1020D00048885F846E847D848C849B84AA84B984C0
:1020E000C884DF80EE80FD800C811B81AA81B981CC
:1020F000CE0FD11D0FB6F894DEBF0FBECDBFED01E0
:062100000895F894FFCFE2
:1021060001000000030004000500060007000800A7
:1021160009000A0001000200030004000500060091
:1021260007000200D0070000AF0058024A014A012A
:102136004A0106014A018801C4000601C400A5003F
:10214600B801EE01D201B801C4004A0170035D0175
:1021560088014A0106012601F7004A012601060107
:1021660026014A014A014A012601260126014A01A1
:10217600880188014A012601060126014A014A0111
:102186004A01260126014A012601060106014A01E5
:102196008801880188018801B80188014A01060181
:1021A60006012601260126014A0106014A01880187
:1021B600880188018801B80188014A0106012601C3
:1021C60006018801880188010B024A014A014A0179
:1021D60088010601060106014A0188012601060159
:1021E6004A0188014A015D015D0126014A014A0151
:1021F600060106014A0188014A015D015D012601C9
:10220600260106010601060126012601880188012C
:1022160088015D014A012601060106010601F70053
:10222600DC00C400060106010601F700DC00C4005C
:1022360006010601260126018801880188015D0143
:102246004A012601EE01060126015D01B8015D0184
:1022560026015D014A014A0126015D01B801B80166
:10226600880188015D015D01B801B801B8018801E6
:102276005D018801880188015D015D015D014A01FA
:1022860026014A014A010400060004000600030074
:10229600020002000300030003000400040006001D
:1022A6000400040006000400060005000400040003
:1022B60004000600040003000300030003000300FB
:1022C60003000200030003000200030003000200F3
:1022D60003000300030003000300030002000300E1
:1022E60003000300030002000200020002000400D3
:1022F60004000200020002000200020002000400C4
:1023060002000200040002000200020004000400B1
:1023160002000200020002000100010001000200AA
:102326000200020002000200020002000200020097
:102336000200020002000100010004000400040083
:102346000400080008000400080008000400040057
:102356000400040004000800080008000800020049
:10236600020002000200020004000400040004004F
:10237600020004000400040004000400020002003D
:10238600040004000400040002000200020002002F
:10239600020002000400040004000400020004001D
:1023A600010001000400040004000400040002000F
:1023B6000200040001000400020004000200040000
:1023C60002000400020004000400040004000200ED
:1023D60004000400020004000400040004000200DB
:1023E60002000400040004000400040004000400C9
:1023F60004000400040004000400040004000400B7
:1024060004000400040004000400040004000400A6
:1024160004000200020002000200020002000100A5
:102426000200020001000200020001000200020098
:102436000200020002000200010002000200020087
:102446000200010002000200020004000400020073
:102456000200020002000200020001000200020067
:102466000100020002000200040004000200020053
:102476000200020001000100010003000300030046
:10248600030003000300030003000300030003002E
:102496000300020002000200020002000200040023
:1024A6000400020004000400020002000200020010
:1024B60002000400040004000400040002000200FC
:1024C60002000200040004000400040002000200EE
:1024D60004000500050005000200020004000500D6
:1024E60005000500020001000200020002000200D1
:1024F60004000400040004000200010001000100C1
:1025060004000400040004000100020003000400AB
:1025160001000300020003000200030002000300A2
:10252600020004000400040004000200020003008C
:10253600020003000400040003000200020001FF81
:1025460000000000680AD10BFC092D0A0D0A560A84
:00000001FF
